{
  "contractName": "LendingContract",
  "abi": [
    {
      "inputs": [],
      "stateMutability": "nonpayable",
      "type": "constructor"
    },
    {
      "anonymous": false,
      "inputs": [
        {
          "indexed": false,
          "internalType": "address",
          "name": "borrower",
          "type": "address"
        },
        {
          "indexed": false,
          "internalType": "uint256",
          "name": "amount",
          "type": "uint256"
        }
      ],
      "name": "LoanRepaid",
      "type": "event"
    },
    {
      "anonymous": false,
      "inputs": [
        {
          "indexed": false,
          "internalType": "address",
          "name": "borrower",
          "type": "address"
        },
        {
          "indexed": false,
          "internalType": "uint256",
          "name": "amount",
          "type": "uint256"
        }
      ],
      "name": "LoanRequested",
      "type": "event"
    },
    {
      "inputs": [
        {
          "internalType": "address",
          "name": "",
          "type": "address"
        }
      ],
      "name": "balances",
      "outputs": [
        {
          "internalType": "uint256",
          "name": "",
          "type": "uint256"
        }
      ],
      "stateMutability": "view",
      "type": "function",
      "constant": true
    },
    {
      "inputs": [],
      "name": "lender",
      "outputs": [
        {
          "internalType": "address",
          "name": "",
          "type": "address"
        }
      ],
      "stateMutability": "view",
      "type": "function",
      "constant": true
    },
    {
      "inputs": [
        {
          "internalType": "uint256",
          "name": "amount",
          "type": "uint256"
        }
      ],
      "name": "requestLoan",
      "outputs": [],
      "stateMutability": "nonpayable",
      "type": "function"
    },
    {
      "inputs": [],
      "name": "repayLoan",
      "outputs": [],
      "stateMutability": "payable",
      "type": "function",
      "payable": true
    }
  ],
  "bytecode": "0x608060405234801561001057600080fd5b50336000806101000a81548173ffffffffffffffffffffffffffffffffffffffff021916908373ffffffffffffffffffffffffffffffffffffffff16021790555061081c806100606000396000f3fe60806040526004361061003f5760003560e01c806327e235e3146100445780638d5d342914610081578063bcead63e146100aa578063f966ade7146100d5575b600080fd5b34801561005057600080fd5b5061006b600480360381019061006691906104f2565b6100df565b6040516100789190610538565b60405180910390f35b34801561008d57600080fd5b506100a860048036038101906100a3919061057f565b6100f7565b005b3480156100b657600080fd5b506100bf61023c565b6040516100cc91906105bb565b60405180910390f35b6100dd610260565b005b60016020528060005260406000206000915090505481565b6000811161013a576040517f08c379a000000000000000000000000000000000000000000000000000000000815260040161013190610659565b60405180910390fd5b6000600160003373ffffffffffffffffffffffffffffffffffffffff1673ffffffffffffffffffffffffffffffffffffffff16815260200190815260200160002054146101bc576040517f08c379a00000000000000000000000000000000000000000000000000000000081526004016101b3906106c5565b60405180910390fd5b80600160003373ffffffffffffffffffffffffffffffffffffffff1673ffffffffffffffffffffffffffffffffffffffff168152602001908152602001600020819055507f06c22e520074f676b380b03ffba06f2ccf61e51cbeee2a4e084b80a19d2fc23733826040516102319291906106e5565b60405180910390a150565b60008054906101000a900473ffffffffffffffffffffffffffffffffffffffff1681565b6000600160003373ffffffffffffffffffffffffffffffffffffffff1673ffffffffffffffffffffffffffffffffffffffff16815260200190815260200160002054116102e2576040517f08c379a00000000000000000000000000000000000000000000000000000000081526004016102d99061075a565b60405180910390fd5b600160003373ffffffffffffffffffffffffffffffffffffffff1673ffffffffffffffffffffffffffffffffffffffff168152602001908152602001600020543414610363576040517f08c379a000000000000000000000000000000000000000000000000000000000815260040161035a906107c6565b60405180910390fd5b6000600160003373ffffffffffffffffffffffffffffffffffffffff1673ffffffffffffffffffffffffffffffffffffffff1681526020019081526020016000205490506000600160003373ffffffffffffffffffffffffffffffffffffffff1673ffffffffffffffffffffffffffffffffffffffff1681526020019081526020016000208190555060008054906101000a900473ffffffffffffffffffffffffffffffffffffffff1673ffffffffffffffffffffffffffffffffffffffff166108fc829081150290604051600060405180830381858888f19350505050158015610452573d6000803e3d6000fd5b507fc200a1f31dd659e356e0f112c82558e25f49f7b0f84438691cd96f5cb355882333826040516104849291906106e5565b60405180910390a150565b600080fd5b600073ffffffffffffffffffffffffffffffffffffffff82169050919050565b60006104bf82610494565b9050919050565b6104cf816104b4565b81146104da57600080fd5b50565b6000813590506104ec816104c6565b92915050565b6000602082840312156105085761050761048f565b5b6000610516848285016104dd565b91505092915050565b6000819050919050565b6105328161051f565b82525050565b600060208201905061054d6000830184610529565b92915050565b61055c8161051f565b811461056757600080fd5b50565b60008135905061057981610553565b92915050565b6000602082840312156105955761059461048f565b5b60006105a38482850161056a565b91505092915050565b6105b5816104b4565b82525050565b60006020820190506105d060008301846105ac565b92915050565b600082825260208201905092915050565b7f4c6f616e20616d6f756e74206d7573742062652067726561746572207468616e60008201527f2030000000000000000000000000000000000000000000000000000000000000602082015250565b60006106436022836105d6565b915061064e826105e7565b604082019050919050565b6000602082019050818103600083015261067281610636565b9050919050565b7f596f7520616c7265616479206861766520616e20616374697665206c6f616e00600082015250565b60006106af601f836105d6565b91506106ba82610679565b602082019050919050565b600060208201905081810360008301526106de816106a2565b9050919050565b60006040820190506106fa60008301856105ac565b6107076020830184610529565b9392505050565b7f596f7520646f6e2774206861766520616e20616374697665206c6f616e000000600082015250565b6000610744601d836105d6565b915061074f8261070e565b602082019050919050565b6000602082019050818103600083015261077381610737565b9050919050565b7f496e636f7272656374206c6f616e2072657061796d656e7420616d6f756e7400600082015250565b60006107b0601f836105d6565b91506107bb8261077a565b602082019050919050565b600060208201905081810360008301526107df816107a3565b905091905056fea2646970667358221220f59b3e535229c20a60e6f6fe90419bf275eec03e3e46097d173ca3e7e6f9edbc64736f6c63430008130033",
  "immutableReferences": {},
  "source": "// SPDX-License-Identifier: MIT\r\npragma solidity ^0.8.0;\r\n\r\ncontract LendingContract {\r\n    address public lender;\r\n    mapping(address => uint256) public balances;\r\n\r\n    event LoanRequested(address borrower, uint256 amount);\r\n    event LoanRepaid(address borrower, uint256 amount);\r\n\r\n    constructor() {\r\n        lender = msg.sender;\r\n    }\r\n\r\n    function requestLoan(uint256 amount) external {\r\n        require(amount > 0, \"Loan amount must be greater than 0\");\r\n        require(balances[msg.sender] == 0, \"You already have an active loan\");\r\n\r\n        balances[msg.sender] = amount;\r\n\r\n        emit LoanRequested(msg.sender, amount);\r\n    }\r\n\r\n    function repayLoan() external payable {\r\n        require(balances[msg.sender] > 0, \"You don't have an active loan\");\r\n        require(msg.value == balances[msg.sender], \"Incorrect loan repayment amount\");\r\n\r\n        uint256 amount = balances[msg.sender];\r\n        balances[msg.sender] = 0;\r\n        payable(lender).transfer(amount);\r\n\r\n        emit LoanRepaid(msg.sender, amount);\r\n    }\r\n}\r\n",
  "sourcePath": "C:\\Users\\hp\\OneDrive\\Documents\\lending-project\\contracts\\LendingContract.sol",
  "compiler": {
    "name": "solc",
    "version": "0.8.19+commit.7dd6d404.Emscripten.clang"
  },
  "schemaVersion": "3.4.13",
  "updatedAt": "2023-05-19T19:22:46.823Z",
  "networkType": "ethereum",
  "devdoc": {
    "kind": "dev",
    "methods": {},
    "version": 1
  },
  "userdoc": {
    "kind": "user",
    "methods": {},
    "version": 1
  }
}